:100A7500120A8F120AA775B0FF7D10AF311209AEA9
:0A0A8500120910AF2A12075B80EF80
:100A07002563004C6564303A4F4E23004C656430D3
:100A17003A4F464623004C6564313A4F4E23004C0B
:090A27006564313A4F4646230094
:100AA700438901758CFC758A18D2AFD2A9D28CD232
:040AB700A8D2882217
:030003000206B939
:1006B900C0E0C0F0C083C082C0D075D000C000C007
:1006C90001C002C003C004C005C006C007E5B0F4FC
:1006D90024EC601524F0601524E0601E24C0603805
:1006E90024807053752D008006052D8002152D7B01
:1006F900FF7A0A7907852D0B803AE52B70047F0173
:1007090080027F008F2BE52B7BFF60067A0A790A2E
:1007190080047A0A7913801CE52C70047F01800219
:100729007F008F2CE52C7BFF60067A0A791D8004F7
:100739007A0A7926120088D007D006D005D004D0CD
:1007490003D002D001D000D0D0D082D083D0F0D055
:02075900E0328C
:03000B0002097F68
:10097F00C0E0C0D075D000C006758CFC758A180514
:10098F002FE52FAE2E7002052E14C39410EE942770
:0F099F004006752E00752F00D006D0D0D0E03264
:03001300020006E2
:0100060032C7
:03001B00020007D9
:0100070032C6
:030023000208CD03
:1008CD00C0E0C0F0C083C082C0D075D000C000C0F1
:1008DD0001C002C003C004C005C006C0073098089F
:1008ED00C29885993112094DD007D006D005D00494
:1008FD00D003D002D001D000D0D0D082D083D0F0A0
:03090D00D0E03205
:10087E004C6564303A4F4646004C6564303A4F4EF4
:10088E00004C6564313A4F4646004C6564313A4F30
:10089E004E006C65667400726967687400666C6100
:1008AE007368696E670054696D65206F757400C05A
:0F08BE00F9A4B0999282F880908883C6A1868EA3
:100A5800013100012D00022E000101300001330098
:0C0A6800012A00013200012B01012C01C9
:10094D00E53160047F0180027F00E531642360049E
:10095D007E0180027E00EE5F600BAF3205327422A5
:10096D002FF8A6312274222532F8E4F6F53212065C
:02097D00002256
:1006000078227C007D007BFF7A08797E120555EF09
:1006100070055390FB801A78227C007D007BFF7A66
:10062000087987120555EF7008E59054FB4404F5EE
:100630009078227C007D007BFF7A08798F12055527
:10064000EF70055390F7801A78227C007D007BFFC5
:100650007A087998120555EF7008E59054F7440828
:10066000F59078227C007D007BFF7A0879A0120546
:1006700055EF7004752A012278227C007D007BFFF3
:100680007A0879A5120555EF7004752A022278229E
:100690007C007D007BFF7A0879AB120555EF700472
:1006A000752A032278227C007D007BFF7A0879B4CA
:0906B000120555EF7002F52A2233
:10075B00AB07AE2EAF2F7C017DF4120382ED4C6004
:10076B00030207F1EB24FE602D14606C24027076FB
:10077B00E59054F024F0601624F0601424E060122D
:10078B0024C060102490600424F0705A802F8036AF
:10079B00803D80208027E59054F024F0601624F0F3
:1007AB00601B24E0602024C060252490600424F0AA
:1007BB0070348000E590540F4480F59022E59054FE
:1007CB000F4410F59022E590540F4420F59022E54C
:1007DB0090540F4440F59022E59054F064F0FFE5FF
:0707EB0090540F4FF590221E
:1009AE00E52F540F24F8601224087022E59054FCB1
:1009BE004401F590EF8DF084800EE59054FC4402D6
:0F09CE00F590EF8DF084E5F09008BD93F5802251
:100A300075A00FE5A0640F14601214601224FE600C
:100A40001124FC60102408700E7F0422E4FF227F32
:070A500001227F02227F0357
:010A5700227C
:1009DD0075A0F0E5A064F024F0601324F0601224FB
:1009ED00E0601124C060102480700E7F0422E4FFAB
:0909FD00227F01227F02227F0308
:010A060022CD
:10091000120A30EF25E025E0FE1209DDEF2EF5305A
:10092000E533641460047F0180027F00E5306414C5
:1009300060047E0180027E00EE4F6010E530B4144A
:0D0940000885332DAF2D120AC385303322F8
:080ABB008F1C120AC3AF1C22BC
:080AC3008F993099FDC29922C0
:100A8F00438920758780759850758DFA858D8BD227
:080A9F00AFD2ACC2ABD28E2233
:030000000207F202
:0C07F200787FE4F6D8FD758133020839E9
:10038200BC000BBE0029EF8DF084FFADF022E4CC5F
:10039200F875F008EF2FFFEE33FEEC33FCEE9DEC28
:1003A200984005FCEE9DFE0FD5F0E9E4CEFD22ED6E
:1003B200F8F5F0EE8420D21CFEADF075F008EF2FB8
:1003C200FFED33FD4007985006D5F0F222C398FDA9
:0503D2000FD5F0EA2246
:10002600E517240BF8E60517227808300702780B47
:10003600E475F0011205CA0205722000EB7F2ED28C
:10004600008018EF540F2490D43440D4FF30040BB2
:10005600EF24BFB41A0050032461FFE518600215AF
:1000660018051BE51B7002051A30070D7808E475A4
:10007600F0011205CAEF0205B8020ABB7403D207E3
:100086008003E4C207F5178B088A09890AE4F51884
:10009600F51AF51BE51860077F2012006180F575DB
:1000A60019FFC201C200C202C203C205C206C208CB
:1000B60012002FFF700D3007057F00120072AF1B74
:1000C600AE1A22B4255FC2D5C20412002FFF24D077
:1000D600B40A00501A75F00A781830D50508B6FF2C
:1000E6000106C6A426F620D5047002D20380D924C0
:1000F600CFB41A00EF5004C2E5D204020272D20154
:1001060080C6D20080C0D20280BCD2D580BAD205C9
:1001160080B47F201200612002077401B5180040E8
:10012600F1120026FF12006102009AD208D2068060
:1001360095120026FB120026FA120026F94A4B7089
:100146000679437A037BFF20022EE518602A7E009B
:100156008E8275830012058B60060EEE651970F0AF
:10016600C2D5EBC0E0EAC0E0E9C0E0EE1202B9D0C9
:10017600E0F9D0E0FAD0E0FB120572FF60AAEBC00E
:10018600E0EAC0E0E9C0E0120061D0E02401F9D065
:10019600E03400FAD0E0FBE5190460DCD519D9801B
:1001A600877BFF7A0279B5D202809C79108002792A
:1001B60008C206C2088008D2D5790A8004790AC224
:1001C600D5E519047002F519E4FAFDFEFF120026C2
:1001D600FC7B08200113120026FD7B1030000A125A
:1001E6000026FE120026FF7B20EC3382D592D550E6
:1001F60013C3E43000069FFFE49EFEE42001039D46
:10020600FDE49CFCE4CBF8C201EC700CCFCECDCC67
:10021600E824F8F870F38017C3EF33FFEE33FEEDF2
:1002260033FDEC33FCEB33FB994002FB0FD8E9EBD3
:10023600300105F8D0E0C448B201C0E00AEC4D4EEA
:100246004F78207B0070C2EAB5190040BCC0E012AE
:1002560002BBD0F0D0E0200104C4C0E0C4B201C0AB
:10026600F012004AD0F0D5F0EB02009A1205DA013E
:10027600375301B15801084C01044201B54F01BD85
:0F0286004401BD49011D4301C35501A74601A70E
:100295004501A747036350010C2D01102E01332B97
:1002A500011423013120034C2A00CC480000012B06
:1002B5003F3F3F00790AA2D5200314300509B91044
:1002C500020404B9080104A2D52006025001042045
:1002D50002689202B518005034C0E07F203003193F
:1002E5007F30A20272067205500F120312C202C2BB
:1002F50006C205C2087F30800F300503E9C0E01251
:100305000061300503D0E0F9D0E0B518CC30051711
:100315007F30B9100C1200617F583004077F788058
:1003250003B908031200613002057F2D0200617FC9
:10033500202008F87F2B2006F322920280CF286E1A
:10034500756C6C2900D2011200263001F8C20178C3
:100355001830D50108F60200CC2D5043495812003B
:10036500262403B405004001E490035E9312005275
:0D037500743A120052D2037518040201B14F
:1003D700E3F5F009E208B5F06D606B80F3E3F5F043
:1003E70009E608B5F060605E80F387F009E608B5B6
:1003F700F054605280F487F009E208B5F04860468F
:1004070080F488828C8387F009E0A3B5F0386036E2
:1004170080F488828C8387F009E493A3B5F0276082
:100427002580F388828C83E3F5F009E0A3B5F01605
:10043700601480F388828C83E3F5F009E493A3B515
:10044700F004600280F2020502808580E7808E80DA
:10045700D2803C8015806C807E809B80B5808B80AD
:10046700A1804F8070803A02050E89828A83ECFA58
:10047700E493F5F0A3C8C582C8CCC583CCE493A3A5
:10048700C8C582C8CCC583CCB5F070606E80E189E1
:10049700828A83E493F5F0A3E208B5F05E605C809E
:1004A700F289828A83E0F5F0A3E608B5F04D604B48
:1004B70080F389828A83E0F5F0A3E208B5F03C6017
:1004C7003A80F389828A83E493F5F0A3E608B5F0CE
:1004D7002A602880F2805389828A83ECFAE493F5B4
:1004E700F0A3C8C582C8CCC583CCE0A3C8C582C861
:1004F700CCC583CCB5F004600280E27FFFB5F00283
:100507000F2240027F012289828A83ECFAE0F5F00C
:10051700A3C8C582C8CCC583CCE0A3C8C582C8CC54
:10052700C583CCB5F0D560D380E389828A83ECFAA2
:10053700E0F5F0A3C8C582C8CCC583CCE493A3C8B3
:10054700C582C8CCC583CCB5F0B160AF80E288F076
:10055700ED2402B4040050A3F582EB2402B4040096
:0B056700509923234582239004507319
:1007FE00020A75E493A3F8E493A34003F68001F292
:10080E0008DFF48029E493A3F85407240CC8C333FB
:10081E00C4540F4420C8834004F456800146F6DFCA
:10082E00E4800B0102040810204080900A58E47EF8
:10083E00019360BCA3FF543F30E509541FFEE493BF
:10084E00A360010ECF54C025E060A840B8E493A386
:10085E00FAE493A3F8E493A3C8C582C8CAC583CAB1
:10086E00F0A3C8C582C8CAC583CADFE9DEE780BE69
:010A74000081
:10057200BB010689828A83E0225002E722BBFE0287
:09058200E32289828A83E49322BA
:10058B00BB010CE58229F582E5833AF583E0225025
:10059B0006E92582F8E622BBFE06E92582F8E2226F
:0D05AB00E58229F582E5833AF583E4932289
:1005B800BB010689828A83F0225002F722BBFE0122
:0205C800F3221C
:1005CA00FAE6FB0808E6F925F0F618E6CA3AF62232
:1005DA00D083D082F8E4937012740193700DA3A3B0
:1005EA0093F8740193F5828883E4737402936860C4
:0605FA00EFA3A3A380DFC4
:00000001FF
